{
  "_format": "hh-sol-artifact-1",
  "contractName": "CarDealership",
  "sourceName": "contracts/CarDealership.sol",
  "abi": [
    {
      "inputs": [
        {
          "internalType": "string",
          "name": "carModel",
          "type": "string"
        },
        {
          "internalType": "uint256",
          "name": "price",
          "type": "uint256"
        },
        {
          "internalType": "string",
          "name": "vin",
          "type": "string"
        }
      ],
      "name": "addCar",
      "outputs": [],
      "stateMutability": "nonpayable",
      "type": "function"
    },
    {
      "inputs": [
        {
          "internalType": "uint256",
          "name": "index",
          "type": "uint256"
        }
      ],
      "name": "getCar",
      "outputs": [
        {
          "internalType": "string",
          "name": "carModel",
          "type": "string"
        },
        {
          "internalType": "uint256",
          "name": "price",
          "type": "uint256"
        },
        {
          "internalType": "string",
          "name": "vin",
          "type": "string"
        }
      ],
      "stateMutability": "view",
      "type": "function"
    },
    {
      "inputs": [],
      "name": "getCars",
      "outputs": [
        {
          "components": [
            {
              "internalType": "string",
              "name": "carModel",
              "type": "string"
            },
            {
              "internalType": "uint256",
              "name": "price",
              "type": "uint256"
            },
            {
              "internalType": "string",
              "name": "vin",
              "type": "string"
            }
          ],
          "internalType": "struct CarDealership.Car[]",
          "name": "",
          "type": "tuple[]"
        }
      ],
      "stateMutability": "view",
      "type": "function"
    }
  ],
  "bytecode": "0x608060405234801561001057600080fd5b50610ce8806100206000396000f3fe608060405234801561001057600080fd5b50600436106100415760003560e01c806317c39286146100465780633441f1a2146100645780635e8be19014610080575b600080fd5b61004e6100b2565b60405161005b919061064c565b60405180910390f35b61007e600480360381019061007991906107e3565b61023f565b005b61009a6004803603810190610095919061086e565b6102c2565b6040516100a9939291906108f4565b60405180910390f35b60606000805480602002602001604051908101604052809291908181526020016000905b82821015610236578382906000526020600020906003020160405180606001604052908160008201805461010990610968565b80601f016020809104026020016040519081016040528092919081815260200182805461013590610968565b80156101825780601f1061015757610100808354040283529160200191610182565b820191906000526020600020905b81548152906001019060200180831161016557829003601f168201915b50505050508152602001600182015481526020016002820180546101a590610968565b80601f01602080910402602001604051908101604052809291908181526020018280546101d190610968565b801561021e5780601f106101f35761010080835404028352916020019161021e565b820191906000526020600020905b81548152906001019060200180831161020157829003601f168201915b505050505081525050815260200190600101906100d6565b50505050905090565b60006040518060600160405280858152602001848152602001838152509080600181540180825580915050600190039060005260206000209060030201600090919091909150600082015181600001908161029a9190610b45565b506020820151816001015560408201518160020190816102ba9190610b45565b505050505050565b606060006060600080549050841061030f576040517f08c379a000000000000000000000000000000000000000000000000000000000815260040161030690610c63565b60405180910390fd5b600080858154811061032457610323610c83565b5b906000526020600020906003020160405180606001604052908160008201805461034d90610968565b80601f016020809104026020016040519081016040528092919081815260200182805461037990610968565b80156103c65780601f1061039b576101008083540402835291602001916103c6565b820191906000526020600020905b8154815290600101906020018083116103a957829003601f168201915b50505050508152602001600182015481526020016002820180546103e990610968565b80601f016020809104026020016040519081016040528092919081815260200182805461041590610968565b80156104625780601f1061043757610100808354040283529160200191610462565b820191906000526020600020905b81548152906001019060200180831161044557829003601f168201915b5050505050815250509050806000015181602001518260400151935093509350509193909250565b600081519050919050565b600082825260208201905092915050565b6000819050602082019050919050565b600081519050919050565b600082825260208201905092915050565b60005b838110156104f05780820151818401526020810190506104d5565b60008484015250505050565b6000601f19601f8301169050919050565b6000610518826104b6565b61052281856104c1565b93506105328185602086016104d2565b61053b816104fc565b840191505092915050565b6000819050919050565b61055981610546565b82525050565b6000606083016000830151848203600086015261057c828261050d565b91505060208301516105916020860182610550565b50604083015184820360408601526105a9828261050d565b9150508091505092915050565b60006105c2838361055f565b905092915050565b6000602082019050919050565b60006105e28261048a565b6105ec8185610495565b9350836020820285016105fe856104a6565b8060005b8581101561063a578484038952815161061b85826105b6565b9450610626836105ca565b925060208a01995050600181019050610602565b50829750879550505050505092915050565b6000602082019050818103600083015261066681846105d7565b905092915050565b6000604051905090565b600080fd5b600080fd5b600080fd5b600080fd5b7f4e487b7100000000000000000000000000000000000000000000000000000000600052604160045260246000fd5b6106c4826104fc565b810181811067ffffffffffffffff821117156106e3576106e261068c565b5b80604052505050565b60006106f661066e565b905061070282826106bb565b919050565b600067ffffffffffffffff8211156107225761072161068c565b5b61072b826104fc565b9050602081019050919050565b82818337600083830152505050565b600061075a61075584610707565b6106ec565b90508281526020810184848401111561077657610775610687565b5b610781848285610738565b509392505050565b600082601f83011261079e5761079d610682565b5b81356107ae848260208601610747565b91505092915050565b6107c081610546565b81146107cb57600080fd5b50565b6000813590506107dd816107b7565b92915050565b6000806000606084860312156107fc576107fb610678565b5b600084013567ffffffffffffffff81111561081a5761081961067d565b5b61082686828701610789565b9350506020610837868287016107ce565b925050604084013567ffffffffffffffff8111156108585761085761067d565b5b61086486828701610789565b9150509250925092565b60006020828403121561088457610883610678565b5b6000610892848285016107ce565b91505092915050565b600082825260208201905092915050565b60006108b7826104b6565b6108c1818561089b565b93506108d18185602086016104d2565b6108da816104fc565b840191505092915050565b6108ee81610546565b82525050565b6000606082019050818103600083015261090e81866108ac565b905061091d60208301856108e5565b818103604083015261092f81846108ac565b9050949350505050565b7f4e487b7100000000000000000000000000000000000000000000000000000000600052602260045260246000fd5b6000600282049050600182168061098057607f821691505b60208210810361099357610992610939565b5b50919050565b60008190508160005260206000209050919050565b60006020601f8301049050919050565b600082821b905092915050565b6000600883026109fb7fffffffffffffffffffffffffffffffffffffffffffffffffffffffffffffffff826109be565b610a0586836109be565b95508019841693508086168417925050509392505050565b6000819050919050565b6000610a42610a3d610a3884610546565b610a1d565b610546565b9050919050565b6000819050919050565b610a5c83610a27565b610a70610a6882610a49565b8484546109cb565b825550505050565b600090565b610a85610a78565b610a90818484610a53565b505050565b5b81811015610ab457610aa9600082610a7d565b600181019050610a96565b5050565b601f821115610af957610aca81610999565b610ad3846109ae565b81016020851015610ae2578190505b610af6610aee856109ae565b830182610a95565b50505b505050565b600082821c905092915050565b6000610b1c60001984600802610afe565b1980831691505092915050565b6000610b358383610b0b565b9150826002028217905092915050565b610b4e826104b6565b67ffffffffffffffff811115610b6757610b6661068c565b5b610b718254610968565b610b7c828285610ab8565b600060209050601f831160018114610baf5760008415610b9d578287015190505b610ba78582610b29565b865550610c0f565b601f198416610bbd86610999565b60005b82811015610be557848901518255600182019150602085019450602081019050610bc0565b86831015610c025784890151610bfe601f891682610b0b565b8355505b6001600288020188555050505b505050505050565b7f43617220696e646578206f7574206f662072616e676500000000000000000000600082015250565b6000610c4d60168361089b565b9150610c5882610c17565b602082019050919050565b60006020820190508181036000830152610c7c81610c40565b9050919050565b7f4e487b7100000000000000000000000000000000000000000000000000000000600052603260045260246000fdfea26469706673582212204754a26c0dc4bd347902ecb224ecfa8bc2d981eae58fe281a03a55d9ef84c70164736f6c63430008110033",
  "linkReferences": {},
  "deployedLinkReferences": {}
}