{"contracts/CarDealership.sol":{"CarDealership":{"abi":[{"inputs":[{"internalType":"string","name":"carModel","type":"string"},{"internalType":"uint256","name":"price","type":"uint256"},{"internalType":"string","name":"vin","type":"string"}],"name":"addCar","outputs":[],"stateMutability":"nonpayable","type":"function"},{"inputs":[{"internalType":"uint256","name":"index","type":"uint256"}],"name":"getCar","outputs":[{"internalType":"string","name":"carModel","type":"string"},{"internalType":"uint256","name":"price","type":"uint256"},{"internalType":"string","name":"vin","type":"string"}],"stateMutability":"view","type":"function"},{"inputs":[],"name":"getCars","outputs":[{"components":[{"internalType":"string","name":"carModel","type":"string"},{"internalType":"uint256","name":"price","type":"uint256"},{"internalType":"string","name":"vin","type":"string"}],"internalType":"struct CarDealership.Car[]","name":"","type":"tuple[]"}],"stateMutability":"view","type":"function"}],"evm":{"bytecode":{"linkReferences":{},"object":"608060405234801561001057600080fd5b50610ce8806100206000396000f3fe608060405234801561001057600080fd5b50600436106100415760003560e01c806317c39286146100465780633441f1a2146100645780635e8be19014610080575b600080fd5b61004e6100b2565b60405161005b919061064c565b60405180910390f35b61007e600480360381019061007991906107e3565b61023f565b005b61009a6004803603810190610095919061086e565b6102c2565b6040516100a9939291906108f4565b60405180910390f35b60606000805480602002602001604051908101604052809291908181526020016000905b82821015610236578382906000526020600020906003020160405180606001604052908160008201805461010990610968565b80601f016020809104026020016040519081016040528092919081815260200182805461013590610968565b80156101825780601f1061015757610100808354040283529160200191610182565b820191906000526020600020905b81548152906001019060200180831161016557829003601f168201915b50505050508152602001600182015481526020016002820180546101a590610968565b80601f01602080910402602001604051908101604052809291908181526020018280546101d190610968565b801561021e5780601f106101f35761010080835404028352916020019161021e565b820191906000526020600020905b81548152906001019060200180831161020157829003601f168201915b505050505081525050815260200190600101906100d6565b50505050905090565b60006040518060600160405280858152602001848152602001838152509080600181540180825580915050600190039060005260206000209060030201600090919091909150600082015181600001908161029a9190610b45565b506020820151816001015560408201518160020190816102ba9190610b45565b505050505050565b606060006060600080549050841061030f576040517f08c379a000000000000000000000000000000000000000000000000000000000815260040161030690610c63565b60405180910390fd5b600080858154811061032457610323610c83565b5b906000526020600020906003020160405180606001604052908160008201805461034d90610968565b80601f016020809104026020016040519081016040528092919081815260200182805461037990610968565b80156103c65780601f1061039b576101008083540402835291602001916103c6565b820191906000526020600020905b8154815290600101906020018083116103a957829003601f168201915b50505050508152602001600182015481526020016002820180546103e990610968565b80601f016020809104026020016040519081016040528092919081815260200182805461041590610968565b80156104625780601f1061043757610100808354040283529160200191610462565b820191906000526020600020905b81548152906001019060200180831161044557829003601f168201915b5050505050815250509050806000015181602001518260400151935093509350509193909250565b600081519050919050565b600082825260208201905092915050565b6000819050602082019050919050565b600081519050919050565b600082825260208201905092915050565b60005b838110156104f05780820151818401526020810190506104d5565b60008484015250505050565b6000601f19601f8301169050919050565b6000610518826104b6565b61052281856104c1565b93506105328185602086016104d2565b61053b816104fc565b840191505092915050565b6000819050919050565b61055981610546565b82525050565b6000606083016000830151848203600086015261057c828261050d565b91505060208301516105916020860182610550565b50604083015184820360408601526105a9828261050d565b9150508091505092915050565b60006105c2838361055f565b905092915050565b6000602082019050919050565b60006105e28261048a565b6105ec8185610495565b9350836020820285016105fe856104a6565b8060005b8581101561063a578484038952815161061b85826105b6565b9450610626836105ca565b925060208a01995050600181019050610602565b50829750879550505050505092915050565b6000602082019050818103600083015261066681846105d7565b905092915050565b6000604051905090565b600080fd5b600080fd5b600080fd5b600080fd5b7f4e487b7100000000000000000000000000000000000000000000000000000000600052604160045260246000fd5b6106c4826104fc565b810181811067ffffffffffffffff821117156106e3576106e261068c565b5b80604052505050565b60006106f661066e565b905061070282826106bb565b919050565b600067ffffffffffffffff8211156107225761072161068c565b5b61072b826104fc565b9050602081019050919050565b82818337600083830152505050565b600061075a61075584610707565b6106ec565b90508281526020810184848401111561077657610775610687565b5b610781848285610738565b509392505050565b600082601f83011261079e5761079d610682565b5b81356107ae848260208601610747565b91505092915050565b6107c081610546565b81146107cb57600080fd5b50565b6000813590506107dd816107b7565b92915050565b6000806000606084860312156107fc576107fb610678565b5b600084013567ffffffffffffffff81111561081a5761081961067d565b5b61082686828701610789565b9350506020610837868287016107ce565b925050604084013567ffffffffffffffff8111156108585761085761067d565b5b61086486828701610789565b9150509250925092565b60006020828403121561088457610883610678565b5b6000610892848285016107ce565b91505092915050565b600082825260208201905092915050565b60006108b7826104b6565b6108c1818561089b565b93506108d18185602086016104d2565b6108da816104fc565b840191505092915050565b6108ee81610546565b82525050565b6000606082019050818103600083015261090e81866108ac565b905061091d60208301856108e5565b818103604083015261092f81846108ac565b9050949350505050565b7f4e487b7100000000000000000000000000000000000000000000000000000000600052602260045260246000fd5b6000600282049050600182168061098057607f821691505b60208210810361099357610992610939565b5b50919050565b60008190508160005260206000209050919050565b60006020601f8301049050919050565b600082821b905092915050565b6000600883026109fb7fffffffffffffffffffffffffffffffffffffffffffffffffffffffffffffffff826109be565b610a0586836109be565b95508019841693508086168417925050509392505050565b6000819050919050565b6000610a42610a3d610a3884610546565b610a1d565b610546565b9050919050565b6000819050919050565b610a5c83610a27565b610a70610a6882610a49565b8484546109cb565b825550505050565b600090565b610a85610a78565b610a90818484610a53565b505050565b5b81811015610ab457610aa9600082610a7d565b600181019050610a96565b5050565b601f821115610af957610aca81610999565b610ad3846109ae565b81016020851015610ae2578190505b610af6610aee856109ae565b830182610a95565b50505b505050565b600082821c905092915050565b6000610b1c60001984600802610afe565b1980831691505092915050565b6000610b358383610b0b565b9150826002028217905092915050565b610b4e826104b6565b67ffffffffffffffff811115610b6757610b6661068c565b5b610b718254610968565b610b7c828285610ab8565b600060209050601f831160018114610baf5760008415610b9d578287015190505b610ba78582610b29565b865550610c0f565b601f198416610bbd86610999565b60005b82811015610be557848901518255600182019150602085019450602081019050610bc0565b86831015610c025784890151610bfe601f891682610b0b565b8355505b6001600288020188555050505b505050505050565b7f43617220696e646578206f7574206f662072616e676500000000000000000000600082015250565b6000610c4d60168361089b565b9150610c5882610c17565b602082019050919050565b60006020820190508181036000830152610c7c81610c40565b9050919050565b7f4e487b7100000000000000000000000000000000000000000000000000000000600052603260045260246000fdfea26469706673582212204754a26c0dc4bd347902ecb224ecfa8bc2d981eae58fe281a03a55d9ef84c70164736f6c63430008110033","opcodes":"PUSH1 0x80 PUSH1 0x40 MSTORE CALLVALUE DUP1 ISZERO PUSH2 0x10 JUMPI PUSH1 0x0 DUP1 REVERT JUMPDEST POP PUSH2 0xCE8 DUP1 PUSH2 0x20 PUSH1 0x0 CODECOPY PUSH1 0x0 RETURN INVALID PUSH1 0x80 PUSH1 0x40 MSTORE CALLVALUE DUP1 ISZERO PUSH2 0x10 JUMPI PUSH1 0x0 DUP1 REVERT JUMPDEST POP PUSH1 0x4 CALLDATASIZE LT PUSH2 0x41 JUMPI PUSH1 0x0 CALLDATALOAD PUSH1 0xE0 SHR DUP1 PUSH4 0x17C39286 EQ PUSH2 0x46 JUMPI DUP1 PUSH4 0x3441F1A2 EQ PUSH2 0x64 JUMPI DUP1 PUSH4 0x5E8BE190 EQ PUSH2 0x80 JUMPI JUMPDEST PUSH1 0x0 DUP1 REVERT JUMPDEST PUSH2 0x4E PUSH2 0xB2 JUMP JUMPDEST PUSH1 0x40 MLOAD PUSH2 0x5B SWAP2 SWAP1 PUSH2 0x64C JUMP JUMPDEST PUSH1 0x40 MLOAD DUP1 SWAP2 SUB SWAP1 RETURN JUMPDEST PUSH2 0x7E PUSH1 0x4 DUP1 CALLDATASIZE SUB DUP2 ADD SWAP1 PUSH2 0x79 SWAP2 SWAP1 PUSH2 0x7E3 JUMP JUMPDEST PUSH2 0x23F JUMP JUMPDEST STOP JUMPDEST PUSH2 0x9A PUSH1 0x4 DUP1 CALLDATASIZE SUB DUP2 ADD SWAP1 PUSH2 0x95 SWAP2 SWAP1 PUSH2 0x86E JUMP JUMPDEST PUSH2 0x2C2 JUMP JUMPDEST PUSH1 0x40 MLOAD PUSH2 0xA9 SWAP4 SWAP3 SWAP2 SWAP1 PUSH2 0x8F4 JUMP JUMPDEST PUSH1 0x40 MLOAD DUP1 SWAP2 SUB SWAP1 RETURN JUMPDEST PUSH1 0x60 PUSH1 0x0 DUP1 SLOAD DUP1 PUSH1 0x20 MUL PUSH1 0x20 ADD PUSH1 0x40 MLOAD SWAP1 DUP2 ADD PUSH1 0x40 MSTORE DUP1 SWAP3 SWAP2 SWAP1 DUP2 DUP2 MSTORE PUSH1 0x20 ADD PUSH1 0x0 SWAP1 JUMPDEST DUP3 DUP3 LT ISZERO PUSH2 0x236 JUMPI DUP4 DUP3 SWAP1 PUSH1 0x0 MSTORE PUSH1 0x20 PUSH1 0x0 KECCAK256 SWAP1 PUSH1 0x3 MUL ADD PUSH1 0x40 MLOAD DUP1 PUSH1 0x60 ADD PUSH1 0x40 MSTORE SWAP1 DUP2 PUSH1 0x0 DUP3 ADD DUP1 SLOAD PUSH2 0x109 SWAP1 PUSH2 0x968 JUMP JUMPDEST DUP1 PUSH1 0x1F ADD PUSH1 0x20 DUP1 SWAP2 DIV MUL PUSH1 0x20 ADD PUSH1 0x40 MLOAD SWAP1 DUP2 ADD PUSH1 0x40 MSTORE DUP1 SWAP3 SWAP2 SWAP1 DUP2 DUP2 MSTORE PUSH1 0x20 ADD DUP3 DUP1 SLOAD PUSH2 0x135 SWAP1 PUSH2 0x968 JUMP JUMPDEST DUP1 ISZERO PUSH2 0x182 JUMPI DUP1 PUSH1 0x1F LT PUSH2 0x157 JUMPI PUSH2 0x100 DUP1 DUP4 SLOAD DIV MUL DUP4 MSTORE SWAP2 PUSH1 0x20 ADD SWAP2 PUSH2 0x182 JUMP JUMPDEST DUP3 ADD SWAP2 SWAP1 PUSH1 0x0 MSTORE PUSH1 0x20 PUSH1 0x0 KECCAK256 SWAP1 JUMPDEST DUP2 SLOAD DUP2 MSTORE SWAP1 PUSH1 0x1 ADD SWAP1 PUSH1 0x20 ADD DUP1 DUP4 GT PUSH2 0x165 JUMPI DUP3 SWAP1 SUB PUSH1 0x1F AND DUP3 ADD SWAP2 JUMPDEST POP POP POP POP POP DUP2 MSTORE PUSH1 0x20 ADD PUSH1 0x1 DUP3 ADD SLOAD DUP2 MSTORE PUSH1 0x20 ADD PUSH1 0x2 DUP3 ADD DUP1 SLOAD PUSH2 0x1A5 SWAP1 PUSH2 0x968 JUMP JUMPDEST DUP1 PUSH1 0x1F ADD PUSH1 0x20 DUP1 SWAP2 DIV MUL PUSH1 0x20 ADD PUSH1 0x40 MLOAD SWAP1 DUP2 ADD PUSH1 0x40 MSTORE DUP1 SWAP3 SWAP2 SWAP1 DUP2 DUP2 MSTORE PUSH1 0x20 ADD DUP3 DUP1 SLOAD PUSH2 0x1D1 SWAP1 PUSH2 0x968 JUMP JUMPDEST DUP1 ISZERO PUSH2 0x21E JUMPI DUP1 PUSH1 0x1F LT PUSH2 0x1F3 JUMPI PUSH2 0x100 DUP1 DUP4 SLOAD DIV MUL DUP4 MSTORE SWAP2 PUSH1 0x20 ADD SWAP2 PUSH2 0x21E JUMP JUMPDEST DUP3 ADD SWAP2 SWAP1 PUSH1 0x0 MSTORE PUSH1 0x20 PUSH1 0x0 KECCAK256 SWAP1 JUMPDEST DUP2 SLOAD DUP2 MSTORE SWAP1 PUSH1 0x1 ADD SWAP1 PUSH1 0x20 ADD DUP1 DUP4 GT PUSH2 0x201 JUMPI DUP3 SWAP1 SUB PUSH1 0x1F AND DUP3 ADD SWAP2 JUMPDEST POP POP POP POP POP DUP2 MSTORE POP POP DUP2 MSTORE PUSH1 0x20 ADD SWAP1 PUSH1 0x1 ADD SWAP1 PUSH2 0xD6 JUMP JUMPDEST POP POP POP POP SWAP1 POP SWAP1 JUMP JUMPDEST PUSH1 0x0 PUSH1 0x40 MLOAD DUP1 PUSH1 0x60 ADD PUSH1 0x40 MSTORE DUP1 DUP6 DUP2 MSTORE PUSH1 0x20 ADD DUP5 DUP2 MSTORE PUSH1 0x20 ADD DUP4 DUP2 MSTORE POP SWAP1 DUP1 PUSH1 0x1 DUP2 SLOAD ADD DUP1 DUP3 SSTORE DUP1 SWAP2 POP POP PUSH1 0x1 SWAP1 SUB SWAP1 PUSH1 0x0 MSTORE PUSH1 0x20 PUSH1 0x0 KECCAK256 SWAP1 PUSH1 0x3 MUL ADD PUSH1 0x0 SWAP1 SWAP2 SWAP1 SWAP2 SWAP1 SWAP2 POP PUSH1 0x0 DUP3 ADD MLOAD DUP2 PUSH1 0x0 ADD SWAP1 DUP2 PUSH2 0x29A SWAP2 SWAP1 PUSH2 0xB45 JUMP JUMPDEST POP PUSH1 0x20 DUP3 ADD MLOAD DUP2 PUSH1 0x1 ADD SSTORE PUSH1 0x40 DUP3 ADD MLOAD DUP2 PUSH1 0x2 ADD SWAP1 DUP2 PUSH2 0x2BA SWAP2 SWAP1 PUSH2 0xB45 JUMP JUMPDEST POP POP POP POP POP POP JUMP JUMPDEST PUSH1 0x60 PUSH1 0x0 PUSH1 0x60 PUSH1 0x0 DUP1 SLOAD SWAP1 POP DUP5 LT PUSH2 0x30F JUMPI PUSH1 0x40 MLOAD PUSH32 0x8C379A000000000000000000000000000000000000000000000000000000000 DUP2 MSTORE PUSH1 0x4 ADD PUSH2 0x306 SWAP1 PUSH2 0xC63 JUMP JUMPDEST PUSH1 0x40 MLOAD DUP1 SWAP2 SUB SWAP1 REVERT JUMPDEST PUSH1 0x0 DUP1 DUP6 DUP2 SLOAD DUP2 LT PUSH2 0x324 JUMPI PUSH2 0x323 PUSH2 0xC83 JUMP JUMPDEST JUMPDEST SWAP1 PUSH1 0x0 MSTORE PUSH1 0x20 PUSH1 0x0 KECCAK256 SWAP1 PUSH1 0x3 MUL ADD PUSH1 0x40 MLOAD DUP1 PUSH1 0x60 ADD PUSH1 0x40 MSTORE SWAP1 DUP2 PUSH1 0x0 DUP3 ADD DUP1 SLOAD PUSH2 0x34D SWAP1 PUSH2 0x968 JUMP JUMPDEST DUP1 PUSH1 0x1F ADD PUSH1 0x20 DUP1 SWAP2 DIV MUL PUSH1 0x20 ADD PUSH1 0x40 MLOAD SWAP1 DUP2 ADD PUSH1 0x40 MSTORE DUP1 SWAP3 SWAP2 SWAP1 DUP2 DUP2 MSTORE PUSH1 0x20 ADD DUP3 DUP1 SLOAD PUSH2 0x379 SWAP1 PUSH2 0x968 JUMP JUMPDEST DUP1 ISZERO PUSH2 0x3C6 JUMPI DUP1 PUSH1 0x1F LT PUSH2 0x39B JUMPI PUSH2 0x100 DUP1 DUP4 SLOAD DIV MUL DUP4 MSTORE SWAP2 PUSH1 0x20 ADD SWAP2 PUSH2 0x3C6 JUMP JUMPDEST DUP3 ADD SWAP2 SWAP1 PUSH1 0x0 MSTORE PUSH1 0x20 PUSH1 0x0 KECCAK256 SWAP1 JUMPDEST DUP2 SLOAD DUP2 MSTORE SWAP1 PUSH1 0x1 ADD SWAP1 PUSH1 0x20 ADD DUP1 DUP4 GT PUSH2 0x3A9 JUMPI DUP3 SWAP1 SUB PUSH1 0x1F AND DUP3 ADD SWAP2 JUMPDEST POP POP POP POP POP DUP2 MSTORE PUSH1 0x20 ADD PUSH1 0x1 DUP3 ADD SLOAD DUP2 MSTORE PUSH1 0x20 ADD PUSH1 0x2 DUP3 ADD DUP1 SLOAD PUSH2 0x3E9 SWAP1 PUSH2 0x968 JUMP JUMPDEST DUP1 PUSH1 0x1F ADD PUSH1 0x20 DUP1 SWAP2 DIV MUL PUSH1 0x20 ADD PUSH1 0x40 MLOAD SWAP1 DUP2 ADD PUSH1 0x40 MSTORE DUP1 SWAP3 SWAP2 SWAP1 DUP2 DUP2 MSTORE PUSH1 0x20 ADD DUP3 DUP1 SLOAD PUSH2 0x415 SWAP1 PUSH2 0x968 JUMP JUMPDEST DUP1 ISZERO PUSH2 0x462 JUMPI DUP1 PUSH1 0x1F LT PUSH2 0x437 JUMPI PUSH2 0x100 DUP1 DUP4 SLOAD DIV MUL DUP4 MSTORE SWAP2 PUSH1 0x20 ADD SWAP2 PUSH2 0x462 JUMP JUMPDEST DUP3 ADD SWAP2 SWAP1 PUSH1 0x0 MSTORE PUSH1 0x20 PUSH1 0x0 KECCAK256 SWAP1 JUMPDEST DUP2 SLOAD DUP2 MSTORE SWAP1 PUSH1 0x1 ADD SWAP1 PUSH1 0x20 ADD DUP1 DUP4 GT PUSH2 0x445 JUMPI DUP3 SWAP1 SUB PUSH1 0x1F AND DUP3 ADD SWAP2 JUMPDEST POP POP POP POP POP DUP2 MSTORE POP POP SWAP1 POP DUP1 PUSH1 0x0 ADD MLOAD DUP2 PUSH1 0x20 ADD MLOAD DUP3 PUSH1 0x40 ADD MLOAD SWAP4 POP SWAP4 POP SWAP4 POP POP SWAP2 SWAP4 SWAP1 SWAP3 POP JUMP JUMPDEST PUSH1 0x0 DUP2 MLOAD SWAP1 POP SWAP2 SWAP1 POP JUMP JUMPDEST PUSH1 0x0 DUP3 DUP3 MSTORE PUSH1 0x20 DUP3 ADD SWAP1 POP SWAP3 SWAP2 POP POP JUMP JUMPDEST PUSH1 0x0 DUP2 SWAP1 POP PUSH1 0x20 DUP3 ADD SWAP1 POP SWAP2 SWAP1 POP JUMP JUMPDEST PUSH1 0x0 DUP2 MLOAD SWAP1 POP SWAP2 SWAP1 POP JUMP JUMPDEST PUSH1 0x0 DUP3 DUP3 MSTORE PUSH1 0x20 DUP3 ADD SWAP1 POP SWAP3 SWAP2 POP POP JUMP JUMPDEST PUSH1 0x0 JUMPDEST DUP4 DUP2 LT ISZERO PUSH2 0x4F0 JUMPI DUP1 DUP3 ADD MLOAD DUP2 DUP5 ADD MSTORE PUSH1 0x20 DUP2 ADD SWAP1 POP PUSH2 0x4D5 JUMP JUMPDEST PUSH1 0x0 DUP5 DUP5 ADD MSTORE POP POP POP POP JUMP JUMPDEST PUSH1 0x0 PUSH1 0x1F NOT PUSH1 0x1F DUP4 ADD AND SWAP1 POP SWAP2 SWAP1 POP JUMP JUMPDEST PUSH1 0x0 PUSH2 0x518 DUP3 PUSH2 0x4B6 JUMP JUMPDEST PUSH2 0x522 DUP2 DUP6 PUSH2 0x4C1 JUMP JUMPDEST SWAP4 POP PUSH2 0x532 DUP2 DUP6 PUSH1 0x20 DUP7 ADD PUSH2 0x4D2 JUMP JUMPDEST PUSH2 0x53B DUP2 PUSH2 0x4FC JUMP JUMPDEST DUP5 ADD SWAP2 POP POP SWAP3 SWAP2 POP POP JUMP JUMPDEST PUSH1 0x0 DUP2 SWAP1 POP SWAP2 SWAP1 POP JUMP JUMPDEST PUSH2 0x559 DUP2 PUSH2 0x546 JUMP JUMPDEST DUP3 MSTORE POP POP JUMP JUMPDEST PUSH1 0x0 PUSH1 0x60 DUP4 ADD PUSH1 0x0 DUP4 ADD MLOAD DUP5 DUP3 SUB PUSH1 0x0 DUP7 ADD MSTORE PUSH2 0x57C DUP3 DUP3 PUSH2 0x50D JUMP JUMPDEST SWAP2 POP POP PUSH1 0x20 DUP4 ADD MLOAD PUSH2 0x591 PUSH1 0x20 DUP7 ADD DUP3 PUSH2 0x550 JUMP JUMPDEST POP PUSH1 0x40 DUP4 ADD MLOAD DUP5 DUP3 SUB PUSH1 0x40 DUP7 ADD MSTORE PUSH2 0x5A9 DUP3 DUP3 PUSH2 0x50D JUMP JUMPDEST SWAP2 POP POP DUP1 SWAP2 POP POP SWAP3 SWAP2 POP POP JUMP JUMPDEST PUSH1 0x0 PUSH2 0x5C2 DUP4 DUP4 PUSH2 0x55F JUMP JUMPDEST SWAP1 POP SWAP3 SWAP2 POP POP JUMP JUMPDEST PUSH1 0x0 PUSH1 0x20 DUP3 ADD SWAP1 POP SWAP2 SWAP1 POP JUMP JUMPDEST PUSH1 0x0 PUSH2 0x5E2 DUP3 PUSH2 0x48A JUMP JUMPDEST PUSH2 0x5EC DUP2 DUP6 PUSH2 0x495 JUMP JUMPDEST SWAP4 POP DUP4 PUSH1 0x20 DUP3 MUL DUP6 ADD PUSH2 0x5FE DUP6 PUSH2 0x4A6 JUMP JUMPDEST DUP1 PUSH1 0x0 JUMPDEST DUP6 DUP2 LT ISZERO PUSH2 0x63A JUMPI DUP5 DUP5 SUB DUP10 MSTORE DUP2 MLOAD PUSH2 0x61B DUP6 DUP3 PUSH2 0x5B6 JUMP JUMPDEST SWAP5 POP PUSH2 0x626 DUP4 PUSH2 0x5CA JUMP JUMPDEST SWAP3 POP PUSH1 0x20 DUP11 ADD SWAP10 POP POP PUSH1 0x1 DUP2 ADD SWAP1 POP PUSH2 0x602 JUMP JUMPDEST POP DUP3 SWAP8 POP DUP8 SWAP6 POP POP POP POP POP POP SWAP3 SWAP2 POP POP JUMP JUMPDEST PUSH1 0x0 PUSH1 0x20 DUP3 ADD SWAP1 POP DUP2 DUP2 SUB PUSH1 0x0 DUP4 ADD MSTORE PUSH2 0x666 DUP2 DUP5 PUSH2 0x5D7 JUMP JUMPDEST SWAP1 POP SWAP3 SWAP2 POP POP JUMP JUMPDEST PUSH1 0x0 PUSH1 0x40 MLOAD SWAP1 POP SWAP1 JUMP JUMPDEST PUSH1 0x0 DUP1 REVERT JUMPDEST PUSH1 0x0 DUP1 REVERT JUMPDEST PUSH1 0x0 DUP1 REVERT JUMPDEST PUSH1 0x0 DUP1 REVERT JUMPDEST PUSH32 0x4E487B7100000000000000000000000000000000000000000000000000000000 PUSH1 0x0 MSTORE PUSH1 0x41 PUSH1 0x4 MSTORE PUSH1 0x24 PUSH1 0x0 REVERT JUMPDEST PUSH2 0x6C4 DUP3 PUSH2 0x4FC JUMP JUMPDEST DUP2 ADD DUP2 DUP2 LT PUSH8 0xFFFFFFFFFFFFFFFF DUP3 GT OR ISZERO PUSH2 0x6E3 JUMPI PUSH2 0x6E2 PUSH2 0x68C JUMP JUMPDEST JUMPDEST DUP1 PUSH1 0x40 MSTORE POP POP POP JUMP JUMPDEST PUSH1 0x0 PUSH2 0x6F6 PUSH2 0x66E JUMP JUMPDEST SWAP1 POP PUSH2 0x702 DUP3 DUP3 PUSH2 0x6BB JUMP JUMPDEST SWAP2 SWAP1 POP JUMP JUMPDEST PUSH1 0x0 PUSH8 0xFFFFFFFFFFFFFFFF DUP3 GT ISZERO PUSH2 0x722 JUMPI PUSH2 0x721 PUSH2 0x68C JUMP JUMPDEST JUMPDEST PUSH2 0x72B DUP3 PUSH2 0x4FC JUMP JUMPDEST SWAP1 POP PUSH1 0x20 DUP2 ADD SWAP1 POP SWAP2 SWAP1 POP JUMP JUMPDEST DUP3 DUP2 DUP4 CALLDATACOPY PUSH1 0x0 DUP4 DUP4 ADD MSTORE POP POP POP JUMP JUMPDEST PUSH1 0x0 PUSH2 0x75A PUSH2 0x755 DUP5 PUSH2 0x707 JUMP JUMPDEST PUSH2 0x6EC JUMP JUMPDEST SWAP1 POP DUP3 DUP2 MSTORE PUSH1 0x20 DUP2 ADD DUP5 DUP5 DUP5 ADD GT ISZERO PUSH2 0x776 JUMPI PUSH2 0x775 PUSH2 0x687 JUMP JUMPDEST JUMPDEST PUSH2 0x781 DUP5 DUP3 DUP6 PUSH2 0x738 JUMP JUMPDEST POP SWAP4 SWAP3 POP POP POP JUMP JUMPDEST PUSH1 0x0 DUP3 PUSH1 0x1F DUP4 ADD SLT PUSH2 0x79E JUMPI PUSH2 0x79D PUSH2 0x682 JUMP JUMPDEST JUMPDEST DUP2 CALLDATALOAD PUSH2 0x7AE DUP5 DUP3 PUSH1 0x20 DUP7 ADD PUSH2 0x747 JUMP JUMPDEST SWAP2 POP POP SWAP3 SWAP2 POP POP JUMP JUMPDEST PUSH2 0x7C0 DUP2 PUSH2 0x546 JUMP JUMPDEST DUP2 EQ PUSH2 0x7CB JUMPI PUSH1 0x0 DUP1 REVERT JUMPDEST POP JUMP JUMPDEST PUSH1 0x0 DUP2 CALLDATALOAD SWAP1 POP PUSH2 0x7DD DUP2 PUSH2 0x7B7 JUMP JUMPDEST SWAP3 SWAP2 POP POP JUMP JUMPDEST PUSH1 0x0 DUP1 PUSH1 0x0 PUSH1 0x60 DUP5 DUP7 SUB SLT ISZERO PUSH2 0x7FC JUMPI PUSH2 0x7FB PUSH2 0x678 JUMP JUMPDEST JUMPDEST PUSH1 0x0 DUP5 ADD CALLDATALOAD PUSH8 0xFFFFFFFFFFFFFFFF DUP2 GT ISZERO PUSH2 0x81A JUMPI PUSH2 0x819 PUSH2 0x67D JUMP JUMPDEST JUMPDEST PUSH2 0x826 DUP7 DUP3 DUP8 ADD PUSH2 0x789 JUMP JUMPDEST SWAP4 POP POP PUSH1 0x20 PUSH2 0x837 DUP7 DUP3 DUP8 ADD PUSH2 0x7CE JUMP JUMPDEST SWAP3 POP POP PUSH1 0x40 DUP5 ADD CALLDATALOAD PUSH8 0xFFFFFFFFFFFFFFFF DUP2 GT ISZERO PUSH2 0x858 JUMPI PUSH2 0x857 PUSH2 0x67D JUMP JUMPDEST JUMPDEST PUSH2 0x864 DUP7 DUP3 DUP8 ADD PUSH2 0x789 JUMP JUMPDEST SWAP2 POP POP SWAP3 POP SWAP3 POP SWAP3 JUMP JUMPDEST PUSH1 0x0 PUSH1 0x20 DUP3 DUP5 SUB SLT ISZERO PUSH2 0x884 JUMPI PUSH2 0x883 PUSH2 0x678 JUMP JUMPDEST JUMPDEST PUSH1 0x0 PUSH2 0x892 DUP5 DUP3 DUP6 ADD PUSH2 0x7CE JUMP JUMPDEST SWAP2 POP POP SWAP3 SWAP2 POP POP JUMP JUMPDEST PUSH1 0x0 DUP3 DUP3 MSTORE PUSH1 0x20 DUP3 ADD SWAP1 POP SWAP3 SWAP2 POP POP JUMP JUMPDEST PUSH1 0x0 PUSH2 0x8B7 DUP3 PUSH2 0x4B6 JUMP JUMPDEST PUSH2 0x8C1 DUP2 DUP6 PUSH2 0x89B JUMP JUMPDEST SWAP4 POP PUSH2 0x8D1 DUP2 DUP6 PUSH1 0x20 DUP7 ADD PUSH2 0x4D2 JUMP JUMPDEST PUSH2 0x8DA DUP2 PUSH2 0x4FC JUMP JUMPDEST DUP5 ADD SWAP2 POP POP SWAP3 SWAP2 POP POP JUMP JUMPDEST PUSH2 0x8EE DUP2 PUSH2 0x546 JUMP JUMPDEST DUP3 MSTORE POP POP JUMP JUMPDEST PUSH1 0x0 PUSH1 0x60 DUP3 ADD SWAP1 POP DUP2 DUP2 SUB PUSH1 0x0 DUP4 ADD MSTORE PUSH2 0x90E DUP2 DUP7 PUSH2 0x8AC JUMP JUMPDEST SWAP1 POP PUSH2 0x91D PUSH1 0x20 DUP4 ADD DUP6 PUSH2 0x8E5 JUMP JUMPDEST DUP2 DUP2 SUB PUSH1 0x40 DUP4 ADD MSTORE PUSH2 0x92F DUP2 DUP5 PUSH2 0x8AC JUMP JUMPDEST SWAP1 POP SWAP5 SWAP4 POP POP POP POP JUMP JUMPDEST PUSH32 0x4E487B7100000000000000000000000000000000000000000000000000000000 PUSH1 0x0 MSTORE PUSH1 0x22 PUSH1 0x4 MSTORE PUSH1 0x24 PUSH1 0x0 REVERT JUMPDEST PUSH1 0x0 PUSH1 0x2 DUP3 DIV SWAP1 POP PUSH1 0x1 DUP3 AND DUP1 PUSH2 0x980 JUMPI PUSH1 0x7F DUP3 AND SWAP2 POP JUMPDEST PUSH1 0x20 DUP3 LT DUP2 SUB PUSH2 0x993 JUMPI PUSH2 0x992 PUSH2 0x939 JUMP JUMPDEST JUMPDEST POP SWAP2 SWAP1 POP JUMP JUMPDEST PUSH1 0x0 DUP2 SWAP1 POP DUP2 PUSH1 0x0 MSTORE PUSH1 0x20 PUSH1 0x0 KECCAK256 SWAP1 POP SWAP2 SWAP1 POP JUMP JUMPDEST PUSH1 0x0 PUSH1 0x20 PUSH1 0x1F DUP4 ADD DIV SWAP1 POP SWAP2 SWAP1 POP JUMP JUMPDEST PUSH1 0x0 DUP3 DUP3 SHL SWAP1 POP SWAP3 SWAP2 POP POP JUMP JUMPDEST PUSH1 0x0 PUSH1 0x8 DUP4 MUL PUSH2 0x9FB PUSH32 0xFFFFFFFFFFFFFFFFFFFFFFFFFFFFFFFFFFFFFFFFFFFFFFFFFFFFFFFFFFFFFFFF DUP3 PUSH2 0x9BE JUMP JUMPDEST PUSH2 0xA05 DUP7 DUP4 PUSH2 0x9BE JUMP JUMPDEST SWAP6 POP DUP1 NOT DUP5 AND SWAP4 POP DUP1 DUP7 AND DUP5 OR SWAP3 POP POP POP SWAP4 SWAP3 POP POP POP JUMP JUMPDEST PUSH1 0x0 DUP2 SWAP1 POP SWAP2 SWAP1 POP JUMP JUMPDEST PUSH1 0x0 PUSH2 0xA42 PUSH2 0xA3D PUSH2 0xA38 DUP5 PUSH2 0x546 JUMP JUMPDEST PUSH2 0xA1D JUMP JUMPDEST PUSH2 0x546 JUMP JUMPDEST SWAP1 POP SWAP2 SWAP1 POP JUMP JUMPDEST PUSH1 0x0 DUP2 SWAP1 POP SWAP2 SWAP1 POP JUMP JUMPDEST PUSH2 0xA5C DUP4 PUSH2 0xA27 JUMP JUMPDEST PUSH2 0xA70 PUSH2 0xA68 DUP3 PUSH2 0xA49 JUMP JUMPDEST DUP5 DUP5 SLOAD PUSH2 0x9CB JUMP JUMPDEST DUP3 SSTORE POP POP POP POP JUMP JUMPDEST PUSH1 0x0 SWAP1 JUMP JUMPDEST PUSH2 0xA85 PUSH2 0xA78 JUMP JUMPDEST PUSH2 0xA90 DUP2 DUP5 DUP5 PUSH2 0xA53 JUMP JUMPDEST POP POP POP JUMP JUMPDEST JUMPDEST DUP2 DUP2 LT ISZERO PUSH2 0xAB4 JUMPI PUSH2 0xAA9 PUSH1 0x0 DUP3 PUSH2 0xA7D JUMP JUMPDEST PUSH1 0x1 DUP2 ADD SWAP1 POP PUSH2 0xA96 JUMP JUMPDEST POP POP JUMP JUMPDEST PUSH1 0x1F DUP3 GT ISZERO PUSH2 0xAF9 JUMPI PUSH2 0xACA DUP2 PUSH2 0x999 JUMP JUMPDEST PUSH2 0xAD3 DUP5 PUSH2 0x9AE JUMP JUMPDEST DUP2 ADD PUSH1 0x20 DUP6 LT ISZERO PUSH2 0xAE2 JUMPI DUP2 SWAP1 POP JUMPDEST PUSH2 0xAF6 PUSH2 0xAEE DUP6 PUSH2 0x9AE JUMP JUMPDEST DUP4 ADD DUP3 PUSH2 0xA95 JUMP JUMPDEST POP POP JUMPDEST POP POP POP JUMP JUMPDEST PUSH1 0x0 DUP3 DUP3 SHR SWAP1 POP SWAP3 SWAP2 POP POP JUMP JUMPDEST PUSH1 0x0 PUSH2 0xB1C PUSH1 0x0 NOT DUP5 PUSH1 0x8 MUL PUSH2 0xAFE JUMP JUMPDEST NOT DUP1 DUP4 AND SWAP2 POP POP SWAP3 SWAP2 POP POP JUMP JUMPDEST PUSH1 0x0 PUSH2 0xB35 DUP4 DUP4 PUSH2 0xB0B JUMP JUMPDEST SWAP2 POP DUP3 PUSH1 0x2 MUL DUP3 OR SWAP1 POP SWAP3 SWAP2 POP POP JUMP JUMPDEST PUSH2 0xB4E DUP3 PUSH2 0x4B6 JUMP JUMPDEST PUSH8 0xFFFFFFFFFFFFFFFF DUP2 GT ISZERO PUSH2 0xB67 JUMPI PUSH2 0xB66 PUSH2 0x68C JUMP JUMPDEST JUMPDEST PUSH2 0xB71 DUP3 SLOAD PUSH2 0x968 JUMP JUMPDEST PUSH2 0xB7C DUP3 DUP3 DUP6 PUSH2 0xAB8 JUMP JUMPDEST PUSH1 0x0 PUSH1 0x20 SWAP1 POP PUSH1 0x1F DUP4 GT PUSH1 0x1 DUP2 EQ PUSH2 0xBAF JUMPI PUSH1 0x0 DUP5 ISZERO PUSH2 0xB9D JUMPI DUP3 DUP8 ADD MLOAD SWAP1 POP JUMPDEST PUSH2 0xBA7 DUP6 DUP3 PUSH2 0xB29 JUMP JUMPDEST DUP7 SSTORE POP PUSH2 0xC0F JUMP JUMPDEST PUSH1 0x1F NOT DUP5 AND PUSH2 0xBBD DUP7 PUSH2 0x999 JUMP JUMPDEST PUSH1 0x0 JUMPDEST DUP3 DUP2 LT ISZERO PUSH2 0xBE5 JUMPI DUP5 DUP10 ADD MLOAD DUP3 SSTORE PUSH1 0x1 DUP3 ADD SWAP2 POP PUSH1 0x20 DUP6 ADD SWAP5 POP PUSH1 0x20 DUP2 ADD SWAP1 POP PUSH2 0xBC0 JUMP JUMPDEST DUP7 DUP4 LT ISZERO PUSH2 0xC02 JUMPI DUP5 DUP10 ADD MLOAD PUSH2 0xBFE PUSH1 0x1F DUP10 AND DUP3 PUSH2 0xB0B JUMP JUMPDEST DUP4 SSTORE POP JUMPDEST PUSH1 0x1 PUSH1 0x2 DUP9 MUL ADD DUP9 SSTORE POP POP POP JUMPDEST POP POP POP POP POP POP JUMP JUMPDEST PUSH32 0x43617220696E646578206F7574206F662072616E676500000000000000000000 PUSH1 0x0 DUP3 ADD MSTORE POP JUMP JUMPDEST PUSH1 0x0 PUSH2 0xC4D PUSH1 0x16 DUP4 PUSH2 0x89B JUMP JUMPDEST SWAP2 POP PUSH2 0xC58 DUP3 PUSH2 0xC17 JUMP JUMPDEST PUSH1 0x20 DUP3 ADD SWAP1 POP SWAP2 SWAP1 POP JUMP JUMPDEST PUSH1 0x0 PUSH1 0x20 DUP3 ADD SWAP1 POP DUP2 DUP2 SUB PUSH1 0x0 DUP4 ADD MSTORE PUSH2 0xC7C DUP2 PUSH2 0xC40 JUMP JUMPDEST SWAP1 POP SWAP2 SWAP1 POP JUMP JUMPDEST PUSH32 0x4E487B7100000000000000000000000000000000000000000000000000000000 PUSH1 0x0 MSTORE PUSH1 0x32 PUSH1 0x4 MSTORE PUSH1 0x24 PUSH1 0x0 REVERT INVALID LOG2 PUSH5 0x6970667358 0x22 SLT KECCAK256 SELFBALANCE SLOAD LOG2 PUSH13 0xDC4BD347902ECB224ECFA8BC2 0xD9 DUP2 0xEA 0xE5 DUP16 0xE2 DUP2 LOG0 GASPRICE SSTORE 0xD9 0xEF DUP5 0xC7 ADD PUSH5 0x736F6C6343 STOP ADDMOD GT STOP CALLER "},"methodIdentifiers":{"addCar(string,uint256,string)":"3441f1a2","getCar(uint256)":"5e8be190","getCars()":"17c39286"}}}}}